:020000040800F2
:1000000040200010412C0008A12C0008A12C000861
:10001000A12C0008A12C0008A12C00080000000061
:10002000000000000000000000000000292300087C
:10003000A12C000800000000A12C0008F502000817
:10004000A12C0008A12C0008A12C0008A12C00085C
:10005000A12C0008A12C0008A12C0008A12C00084C
:10006000A12C0008A12C0008A12C0008A12C00083C
:10007000A12C0008A12C0008D9330008A12C0008ED
:10008000ED27000851250008A12C0008A12C00082C
:10009000A12C0008A12C0008A12C0008A12C00080C
:1000A000A12C0008A12C0008A12C0008A12C0008FC
:1000B000A12C0008A12C0008A12C0008A12C0008EC
:1000C000A12C0008A12C0008A12C0008A12C0008DC
:1000D000A12C0008A12C0008A12C0008A12C0008CC
:1000E000A12C0008A12C0008A12C0008A12C0008BC
:1000F000A12C0008A12C0008A12C0008A12C0008AC
:10010000A12C0008A12C0008A12C0008A12C00089B
:10011000A12C0008A12C0008A12C0008A12C00088B
:10012000A12C0008A12C0008A12C0008A12C00087B
:10013000A12C0008A12C0008A12C0008A12C00086B
:10014000A12C0008A12C0008A12C0008A12C00085B
:10015000A12C0008A12C0008A12C0008A12C00084B
:10016000A12C0008A12C0008A12C0008A12C00083B
:10017000A12C0008A12C0008A12C0008A12C00082B
:10018000A12C0008A12C000810B5054C237833B928
:10019000044B13B10448AFF300800123237010BD5A
:1001A00038010020000000007467000808B5034B08
:1001B0001BB103490348AFF3008008BD00000000F5
:1001C0003C01002074670008154B002B08BF134B3F
:1001D0009D46A3F5803A00218B460F461348144AEA
:1001E000121A06F050F90F4B002B00D098470E4B17
:1001F000002B00D098470020002104000D000D487E
:10020000002802D00C48AFF3008006F0FDF8200073
:10021000290000F0BBF806F0E3F800BF000008007A
:100220004020001000000000000000003801002005
:10023000D0BF0020000000000000000080B483B0A8
:1002400000AF0346FB7197F90730002B09DB0D4A1D
:1002500097F90730134493F80033DBB21B09DBB284
:1002600009E0094AFB7903F00F03043B13441B7EAA
:10027000DBB21B09DBB218460C37BD465DF8047BC8
:10028000704700BF00E100E000ED00E080B485B001
:1002900000AF78607B6801331B017B607B68FB608B
:1002A000FB6883F3118800BF1437BD465DF8047BFB
:1002B0007047000080B500AFBFF34F8FBFF36F8F63
:1002C0000A4B1A680A4B1B689A4202D3074B00225A
:1002D0001A60064B1B685A1C04490A60002B03D1A4
:1002E00072B600F02DF862B600BF80BD7C0F002012
:1002F000780F0020EFF3008001B5EFF3118003B415
:100300004FF0FF30FFF79AFF03461846FFF7BEFF96
:10031000014801F0F1FF00BFB502000880B483B0CE
:1003200000AF87ED010A00BF0C37BD465DF8047BC6
:10033000704780B400AF00BFBD465DF8047B7047D6
:1003400080B500AF0F4B1B785A1CD1B20D4A11700B
:10035000002B09D00C4B01221A600A4B1B78013B81
:10036000DAB2084B1A700BE062B602F09BFD72B66F
:10037000044B1B78013BDAB2024B1A7001F049FFC3
:1003800080BD00BF580100205401002080B586B018
:1003900000AF786039600123FB73444B7B61444BB1
:1003A0003B6101DF72B603F0E9FB03F0D3FEFFF718
:1003B000C0FF404B1B6800221A600021002001F0A2
:1003C00086FF02F0E9FD62B63A4B1B6838331846E7
:1003D00001F072FF012001F02DFF0023BB73354BAC
:1003E0001B685B6807F10E020121184601F0B6FE9A
:1003F000BB7B002B04D02F4B1B68012283F84020CD
:1004000001F072FF72B697ED050AFFF787FF294BDF
:100410001B681B68002B07D1264B1B6893F84030E4
:10042000002B01D1012300E00023DBB2FB7362B695
:1004300062B62CE000237B731E4B1B685B6807F1E0
:100440000D020121184601F0BBFE7B7B002B04D07E
:10045000184B1B68012283F84020164B1B681B6851
:10046000002B05D1134B1B6893F84030002B01D0B3
:10047000012300E00023DAB20F4B1A700E4B1B78F9
:10048000DBB2002B0CBF01230023DBB2FB73FB7B31
:10049000DBB2002BCED102F00BFE012001F0D4FE26
:1004A00072B6002318461837BD4680BD6F12033E52
:1004B00000002843686700085901002080B483B019
:1004C00000AF0346FB71FB797E2B05D0FB79032B34
:1004D00002D0FB797D2B01D1012300E000231846D7
:1004E0000C37BD465DF8047B704780B588B000AF1F
:1004F000F860B9607A607B68BB61FB687B61BB6850
:100500003B610023FB6128E03B691B781846FFF73D
:10051000D5FF0346002B13D07B697D221A707B69BF
:1005200001337B613B691B7883F02003DAB27B697E
:100530001A707B6901337B61BB690133BB6106E0E3
:100540003B691A787B691A707B6901337B61FB69AF
:100550000133FB613B6901333B61FA697B689A4275
:10056000D2D3BB6918462037BD4680BD80B588B060
:1005700000AFF860B96011461A460B46FB7113468E
:10058000BB71BB683B61BB79002B1CD10423FB61B1
:100590000023BB6112E0FB69013B07F12002134419
:1005A00013F8101C07F11402BB6913440A461A70B1
:1005B000BB690133BB61FB69013BFB61BB69032B79
:1005C000E9D97B693B61FB79002B08D007F1100367
:1005D00004221946F868FFF788FF034603E03A69EA
:1005E000FB681A60042318462037BD4680BD80B4DE
:1005F00087B000AF78600B46FB700023FB600023E0
:10060000BB607B681B68FB60FB78002B1DD104235B
:100610007B6100233B610023BB6011E07B69013BF0
:1006200007F10C013A690A44127807F118010B44EA
:1006300003F8102C3B6901333B617B69013B7B6113
:100640003B69032BEADDBB6800E0FB6818461C37FA
:10065000BD465DF8047B704780B588B000AF786018
:10066000396000237B610023FB763B685B78002BBD
:1006700001D1002384E07B687E221A707B687E2291
:100680005A707B6803221A747B6803225A747B6851
:1006900000225A617B6800229A617B680022DA613D
:1006A0007B68002283F820207B6802221946386884
:1006B00002F090F90346FB76FB7E002B58D17B6855
:1006C000991C07F10C0301221846FFF70EFF786111
:1006D00007F10C037A691946386802F07BF9034682
:1006E000FB76FB7E002B45D17B6859683B681B7805
:1006F00007F10C000122FFF739FF786107F10C03C5
:100700007A691946386802F065F90346FB76FB7E84
:10071000002B31D10023FB6119E07B689A68FB69EB
:10072000D11807F10C0301221846FFF7DEFE7861AD
:1007300007F10C037A691946386802F04BF9034651
:10074000FB76FB7E002B19D1FB690133FB617B68D3
:100750005B68FA699A42E0D37B681033022219463B
:10076000386802F037F90346FB76FB7E002B06E083
:1007700000BF04E000BF02E000BF00E000BFFB7E5E
:1007800018462037BD4680BD80B584B000AF786084
:10079000396000237B730023BB600023FB730023BD
:1007A000BB733B685B78002B01D1012385E17B683B
:1007B0007E221A707B687E225A707B6803221A742C
:1007C0007B6803225A747B6800225A617B6800228E
:1007D0009A617B680022DA617B68002283F820201E
:1007E00007F1080307F10D010122386802F05CF9F6
:1007F0000346BB73BB7B002B40F05B81BB68012BC6
:1008000008D07B6800225A617B6800229A6101232C
:10081000BB7351E17B685B69023B022B38D87B6874
:1008200093F82030002B09D07B68002283F8202029
:100830007B7B83F02003DBB27B732AE07B7B7D2B09
:1008400004D07E2B07D0032B18D020E07B68012238
:1008500083F820202CE17A687B689A617B689B6929
:10086000591C7A6891617A7B1A707B68DB695A1C23
:100870007B68DA617B6801225A6119E17B6800229A
:100880009A617B6800225A610023FB7300BF00E07D
:1008900000BF7B685B69062B00F2F28001A252F870
:1008A00023F000BFC1080008EF0800081F09000876
:1008B00065090008D9090008270A0008810A00080C
:1008C0007B7B7E2B40F0DE807A687B689A617B6858
:1008D0009B69591C7A6891617A7B1A707B68DB6925
:1008E0005A1C7B68DA617B6801225A61CAE07B7B13
:1008F0007E2B11D17B689B69591C7A6891617A7B48
:100900001A707B680022DA617B6802225A617B6878
:100910009A1C7B689A61BEE00123FB73BBE07B6895
:10092000DB69002B1BD17B689B69591C7A6891613C
:100930007A7B1A707B68DB695A1C7B68DA617B689A
:10094000DB69012B40F0A0807B6803225A617B6841
:100950001A1D7B689A617B680022DA6194E00123AA
:10096000FB7391E07B68DB69032B32D87B689B6962
:10097000591C7A6891617A7B1A707B68DB695A1C12
:100980007B68DA617B68DB69042B7FD17B681A1D89
:100990003B681B7819461046FFF729FE02467B6824
:1009A0005A607B680022DA617B685B68002B07D0A5
:1009B0007B6804225A617B689A687B689A6165E06B
:1009C0007B6805225A617B6803F110027B689A619B
:1009D0005CE00123FB7359E07B68DA697B685B6844
:1009E0009A421DD27B689B69591C7A6891617A7B17
:1009F0001A707B68DB695A1C7B68DA617B68DA698C
:100A00007B685B689A4243D17B6805225A617B68A8
:100A100003F110027B689A617B680022DA6137E09B
:100A20000123FB7334E07B68DB69012B25D87B7BDA
:100A3000032B1FD17B689B69591C7A6891617A7B73
:100A40001A707B68DB695A1C7B68DA617B68DB693A
:100A5000022B1FD17B6806225A617B6800229A61B3
:100A60007B680022DA617B685B69062B23D0012357
:100A7000BB7320E00123FB730CE00123FB7309E04F
:100A800000BF08E000BF06E000BF04E000BF02E0D6
:100A900000BF00E000BFFB7B002B3FF4A1AE7B68F2
:100AA00000229A617B6800225A610123BB7303E034
:100AB00096E600BF00E000BFBB7B18461037BD467E
:100AC00080BD00BF80B582B000AF7860134B1B685B
:100AD0007A689A421CDD124B1B68002B07D0104B22
:100AE0001B68184605F0BCFC0C4B00221A607B68A2
:100AF000184605F0ADFC03461A46094B1A60084B30
:100B00001B68002B01D1012303E0044A7B681360BA
:100B1000002318460837BD4680BD00BF6401002091
:100B20006801002080B586B000AF7860396000238E
:100B3000BB6000237B610823FB600023FB7417E08C
:100B4000164B1868FA687B69D11A7B697A68134476
:100B500007F1080201F098FA0346FB74FB7C002BB6
:100B60000BD1BB687A6913447B617B69002B06D08B
:100B70007A69FB689A42E3DB02E000BF00E000BF55
:100B8000BB68002BCCBF01230023DBB21A463B68B5
:100B90001A70FB7C18461837BD4680BD60010020E6
:100BA00080B586B000AF78600023FB7400237B61C2
:100BB00011E00E4B186807F10B0307F10C0201213D
:100BC00001F062FA0346FB74FB7C002B08D1FB6842
:100BD0007A6913447B617A697B689A42E9DB00E0B9
:100BE00000BF00BF1837BD4680BD00BF60010020B8
:100BF00080B586B000AF78600023FB7500233B61B1
:100C00007868FFF75FFF0346FB75FB7D002B19D06B
:100C10007868FFF7C5FF1BE0134B18687A683B69DB
:100C2000D11A124B1A683B69134407F10C0201F008
:100C30002BFA0346FB75FB7D002B08D1FB683A6954
:100C400013443B613A697B689A42E5DB00E000BFF0
:100C5000FB7D002B02D1054B1B6800E000231846EA
:100C60001837BD4680BD00BF60010020680100202C
:100C700080B584B000AF7860144B1B78FB72002302
:100C8000FB6010E0F86803F053FEFB7A002B03D002
:100C90007968F86800F020FB7968F86803F0C4FD13
:100CA000FB680133FB60FB68012BEBDD084B002286
:100CB0001A70084B00221A70074B1B68184601F087
:100CC0005CF900BF1037BD4680BD00BF7C0E002020
:100CD0005A0100205B0100206001002080B584B033
:100CE00000AF78600D4B00221A700D4B00221A7075
:100CF0000023FB6006E07968F86804F02DF8FB68D3
:100D00000133FB60FB68012BF5DD064B1B681846C1
:100D100001F014FA00BF1037BD4680BD5A01002013
:100D20005B0100206001002080B58EB000AF7860CC
:100D300000237B63002387F833307B689B681B6844
:100D4000BB62BB6A5B687B62BB6A1B683B62102349
:100D5000FB6008233B614F4B186807F1140307F150
:100D60000C02082101F0BFF9034687F8333097F8E9
:100D70003330002B40F083807B69082B7FD1BB6A26
:100D80001B680833FB61FB699B00BB61BB691846AC
:100D900005F05EFB03467B637B6B002B03D10123D5
:100DA00087F833306CE01023FB60BB693B61394B43
:100DB000186807F1140307F10C02082101F093F9F8
:100DC000034687F8333097F83330002B57D17B69CF
:100DD000082B54D17B685B681A687B6B1A607B6850
:100DE0005A687B6B043352681A607B685A687B6B65
:100DF000083392681A607B685A687B6B0C33D26840
:100E00001A607B6B103300221A607B6B1433042250
:100E10001A60214B1B78DAB27B6B18331A607B6B3C
:100E20001C333A6A1A600023FB620DE0FB6A9B00E8
:100E30007A6A1A44FB6A08339B00796B0B44126888
:100E40001A60FB6A0133FB62FA6A3B6A9A42EDDB85
:100E5000104B186807F114037A6BB96901F043F974
:100E6000034687F8333097F83330002B07D17B697E
:100E7000BA699A4203D1094B01221A7000E000BFFF
:100E8000786B05F0EDFA97F8333018463837BD46E1
:100E900080BD00BF60010020080000205B01002031
:100EA00080B586B000AF03463960FB710023FB7547
:100EB000FB79BB603B68FB600C4B186807F11003C3
:100EC00007F10802082101F00EF90346FB75FB7DCE
:100ED000002B02D13B69082B02D00123FB7500E0F7
:100EE00000BFFB7D18461837BD4680BD600100205D
:100EF00080B584B000AF786039600023FB730D4B80
:100F0000186807F108037A68396801F0ECF80346BD
:100F1000FB73FB7B002B03D1BB683A689A4202D07B
:100F20000123FB7300E000BFFB7B18461037BD4672
:100F300080BD00BF6001002080B586B000AF0346D1
:100F4000B9607A60FB730023FB75FB7BB9681846B8
:100F5000FFF7A6FF0346FB75FB7D002B0BD17B68DB
:100F6000002B0AD0B9687868FFF7C2FF0346FB750B
:100F7000FB7D002B02E000BF00E000BFFB7D1846B8
:100F80001837BD4680BD80B586B000AF03463A60D5
:100F9000FB710B46BB710023FB75BB79FB603B68A3
:100FA0003B6107F10C02FB7908211846FFF7C4FFEB
:100FB0000346FB75FB7D18461837BD4680BD80B5DE
:100FC00086B000AF786039600023FB753868FFF7A2
:100FD0000FFE38613B69002B0BD10123FB6007F149
:100FE0000C031A4604211220FFF7A6FF0123FB750C
:100FF00011E03969786803F0A5F90023FB6007F177
:101000000C031A4604211220FFF796FF0346FB75D6
:10101000FB7D002B00BFFB7D18461837BD4680BD09
:1010200080B592B000AF7860002387F83F307B68CE
:101030009B681B68BB63BB6B1B697B637B6B002B73
:101040006FD07B6B1B683B63BB6B5B68FB620023F1
:101050003B6400237B641FE07B6B5A687B6C1B0145
:1010600013445B687B617B699B00FA6A13441B68CD
:101070003B617B6B5A687B6C1B011344DB68FB6034
:101080003B69FA6802FB03F3BB603A6CBB6813442C
:101090003B647B6C01337B647A6C3B6B9A42DBDB99
:1010A000396C1320FFF7FCFE034687F83F3097F8B2
:1010B0003F30002B40D100237B642DE07B6B5A68CE
:1010C0007B6C1B0113441B68BB627B6B5A687B6C97
:1010D0001B0113445B687B627B6A9B00FA6A1344C2
:1010E0001B683B627B6B5A687B6C1B011344DB689B
:1010F000FB613B6AFA6902FB03F3BB61B969B86A39
:10110000FFF7F6FE034687F83F3097F83F30002B95
:1011100014D17B6C01337B647A6C3B6B9A42CDDBE0
:101120000DE000211320FFF7BBFE034687F83F3098
:1011300097F83F30002B02E000BF00E000BF97F8B7
:101140003F3018464837BD4680BD80B588B000AFF7
:10115000B9607A603B600346FB730023FB777868D5
:10116000FFF746FDB861BB69002B08D1FB7B4FF050
:10117000FF3201211846FFF706FF012330E0BB696B
:101180001B687B61FB7B1B2B0CD01C2B00D013E05E
:10119000BB6904337A691946B86803F0B7FC0346A3
:1011A000FB7709E0BB691A1D7B693968B86803F0F1
:1011B000F1FB0346FB7700BFFB7F002B07D07A696A
:1011C000FB7B01211846FFF7DEFEFB7F08E07A6912
:1011D000FB7B00211846FFF7D6FE0346FB77FB7F1B
:1011E00018462037BD4680BD80B588B000AF0346A5
:1011F000B9607A60FB730023FB77B868FFF7F8FCEF
:10120000B861BB69002B08D1FB7B4FF0FF32012195
:101210001846FFF7B8FE01231CE0BB691B687B6121
:10122000FB7B1D2B07D01E2B00D00AE07B691846E4
:1012300003F0AEFD05E07B697968184603F03CFDDC
:1012400000BF7A69FB7B00211846FFF79CFE03462E
:10125000FB77FB7F18462037BD4680BD80B584B044
:1012600000AF786039600023FB6000F0F9FE0246B1
:10127000114B1A60104B1B68002B02D10F4BFB6007
:101280000AE00D4B1B683A687968184600F094FE36
:10129000F860FB68002B00BFFB68002B07D0064BF3
:1012A0001B68184600F0E6FE034B00221A60FB683C
:1012B00018461037BD4680BD600100205466000806
:1012C00080B500AF034B1B68184600F0BDFE034617
:1012D000184680BD6001002080B588B000AF7860FE
:1012E00039600023FB762E4B1B78002B48D007F18A
:1012F00008033A687968184604F0AEFA3CE0002327
:10130000FB612EE0FA68FB691B0113447B617B697A
:101310005A687B691B6819461046FFF7E9FD0346CA
:10132000FB76FB7E002B2DD17B699B68002B0CDDAF
:101330007B69DA687B699B6819461046FFF7D8FD20
:101340000346FB76FB7E002B1ED13A69FB699B00AE
:1013500013441B687968184603F052FDFB6901339A
:10136000FB61BB68FA699A42CCDB07F108033A6873
:101370007968184604F070FABB68002BBFDC04E003
:1013800000BF02E000BF00E000BFFB7E002B02D0E8
:101390003868FFF7A3FC00BF2037BD4680BD00BF03
:1013A0005A01002080B584B000AF78600023FB6054
:1013B00006E07968F868FFF78FFFFB680133FB6090
:1013C000FB68012BF5DD00BF1037BD4680BD000076
:1013D00080B582B000AF0023FB70FB78002B16D1E4
:1013E0000F4B1B68184600F0A5FD0346FB70FB7809
:1013F000002B0ED100237B6005E0786803F0DEF956
:101400007B6801337B607B68012BF6DD02E000BF67
:1014100000E000BFFB7818460837BD4680BD00BF1E
:101420006001002080B582B000AF78603960054B64
:101430001B683A687968184600F074FE00BF0837E8
:10144000BD4680BD6001002090B58DB002AFF86050
:10145000B9607A60002387F82730002387F82630A8
:101460008B4B1B78002B0DD18A4B1B688849184683
:1014700000F06DFD034687F8273097F82730002BE2
:1014800040F0EB80824B1B78002B00F0E88007F1E6
:101490001B0207F11C0311461846FFF743FB0346E6
:1014A00087F8273097F82730002B03D0012387F8DF
:1014B0002630DDE0FB7E002B00F0D380764B1B78DE
:1014C000002B01D10023FB61FB690F2B00F2CB80C5
:1014D00001A252F823F000BF9D150008F315000883
:1014E0001316000867160008B1150008DF1500087C
:1014F0005B1500087B15000841150008411600081F
:101500001B16000839160008671600086716000841
:101510006716000819150008FB68DB68D3E900347A
:10152000C7E9043407F110031A4608211520FFF714
:1015300003FD034687F8273097F82730002B97E004
:101540003B6ABA6819461D20FFF74EFE034687F82E
:10155000273097F82730002B8AE03B6A1A464F4B1A
:101560000093BB68F9681B20FFF7EFFD034687F87F
:10157000273097F82730002B7AE03B6A1A46484B11
:1015800000934FF0FF33F9681C20FFF7DEFD0346A0
:1015900087F8273097F82730002B69E0F868FFF7C5
:1015A000C3FB034687F8273097F82730002B5FE00E
:1015B0003B6A002B03D13B4B01221A7058E03B6A77
:1015C0001946F868FFF7FBFC034687F8273097F8C1
:1015D0002730002B49D1334B01221A7048E0F868BC
:1015E000FFF71EFD034687F8273097F82730002BBA
:1015F0003EE0002200211120FFF79EFC034687F801
:10160000273097F82730002B31D1B868FFF730FB2F
:101610002EE0B868FFF762FB2AE0234B01221A6034
:10162000002200211620FFF787FC034687F82730A9
:1016300097F82730002B1BE07B6801221A7017E017
:101640003B6ABA6819461E20FFF7CEFD034687F8AD
:10165000273097F82730002B0AE000BF08E000BFD2
:1016600006E000BF04E000BF02E000BF00E000BFF2
:1016700097F82730002B06D097F82630002B02D0A1
:10168000B868FFF72BFB00BF2C37BD4690BD00BFED
:101690005A010020600100205B0100206C01002045
:1016A000700100205C010020D801002080B582B0CC
:1016B00000AF78603960786803F03AF93968786883
:1016C000FFF70AFE3968786803F0AEF8074B1B682D
:1016D000002B07D0054B1B68184604F0C1FE034BD6
:1016E00000221A6000BF0837BD4680BD6801002097
:1016F00080B584B000AF78600023FB720023FB60EC
:1017000006E07968F868FFF7D1FFFB680133FB60FA
:10171000FB68012BF5DD134B1B78002B09D0002251
:1017200000211420FFF708FC0346FB720D4B00223A
:101730001A700D4B1B78002B05D00B4B00221A7032
:101740000A4B01221A700A4B1B68184600F01FFC56
:10175000074B1B68184600F08DFCFB7A18461037C3
:10176000BD4680BD5B0100205A010020080000201A
:101770006001002080B584B000AF78600023FB607A
:1017800006E07968F86803F047FFFB680133FB6007
:10179000FB68012BF5DD00BF1037BD4680BD80B56D
:1017A00082B000AF00237B6005E0786803F07EFF25
:1017B0007B6801337B607B68012BF6DD00BF083757
:1017C000BD4680BD80B586B000AFF86087ED000BE8
:1017D00000237B6108E0796997ED000BF86803F05E
:1017E000B3FC7B6901337B617B69012BF3DD00BFB7
:1017F0001837BD4680BD80B483B000AF78603960D3
:101800007B68002B04D13B68002B01D1012300E051
:10181000002318460C37BD465DF8047B704780B541
:1018200084B000AFF860B9607A60FB681A68BB6882
:101830001B6819461046FFF7DEFF0346002B0AD04F
:10184000BB687A681A60BB681A68FB681A607B68B4
:1018500000229A6409E0BB681B687A689A64BB68D6
:101860007A681A607B6800229A6400BF1037BD4610
:1018700080BD80B584B000AF786039600023FB6024
:101880007B681A683B681B6819461046FFF7B3FF70
:101890000346002B01D0002311E07B681B68FB602E
:1018A000FB689A6C7B681A607B681B68002B02D10E
:1018B0003B6800221A60FB6800229A64FB681846A5
:1018C0001037BD4680BD000080B500AF054B1A68DB
:1018D000054B1B6819461046FFF78DFF0346184657
:1018E00080BD00BFC0010020C401002080B500AF52
:1018F000054B1A68054B1B6819461046FFF77BFF1E
:101900000346184680BD00BFC8010020CC0100205E
:1019100080B582B000AF78607A6804490448FFF768
:101920007EFF00BF0837BD4680BD00BFC401002058
:10193000C001002080B500AF03490448FFF799FFBC
:101940000346184680BD00BFC4010020C00100202E
:1019500080B582B000AF78607A6804490448FFF728
:101960005EFF00BF0837BD4680BD00BFCC01002030
:10197000C801002080B500AF03490448FFF779FF94
:101980000346184680BD00BFCC010020C8010020DE
:1019900080B400AF034B1B681846BD465DF8047B5E
:1019A000704700BFC801002080B584B000AF00239D
:1019B000FB720023FB6011E04C21012004F008FDC4
:1019C00003467B607B68002B02D10123FB7209E098
:1019D0007868FFF79DFFFB680133FB60FB68042B11
:1019E000EADD00BFFB7A18461037BD4680BD80B5E2
:1019F00084B000AF78603960FFF79CFFF860FB6847
:101A00003A687968184604F033FD3A68FB681A644E
:101A1000FB6800225A64F868FFF79AFF00BF10378E
:101A2000BD4680BD80B586B002AF78600023FB73F1
:101A30001C4B1B6879681846FEF7A6FE0346FB732D
:101A4000FB7B002B26D1174B1B689B78022B03D105
:101A5000154B00221A7020E0124B1B689A68114B3C
:101A60001B685B6819461046FFF7C1FFFFF72CFFA4
:101A70000346002B10D107F10802022300931346FE
:101A800000220021786800F011F80346FB73FB7B0D
:101A9000002B02E000BF00E000BFFB7B18461037C0
:101AA000BD4680BD00000020BC01002080B58CB088
:101AB00002AFF860B9607A603B60002387F823309A
:101AC0007B68FB61FB69122B28BF1223BB613B685B
:101AD000BA691A6000237B6245E00023FB7507F1B9
:101AE00017031946F86800F099FF034687F823307A
:101AF00097F82330002B5CD1FB7D002B09D0F868D0
:101B0000FFF790FF034687F8233097F82330002B28
:101B100051D1FFF7D9FE0346002B22D07B6A5A1C15
:101B20007A62C72B1FDD00237B62FFF73DFF034670
:101B300087F8233097F82330002B3ED107F11002AD
:101B400002230093134600220021F868FFF7AEFF3E
:101B5000034687F8233097F82330002B03D000BFCB
:101B60002CE000237B62184B1B78002B03D097F8E6
:101B70003030022BB1D1154B1B68BA695A60134B38
:101B80001B6897F830209A70104B1B689B68BA69E5
:101B9000B968184604F06CFC0C4B1B68F9681846D1
:101BA000FEF75AFD034687F8233097F82330002BC1
:101BB00004E000BF02E000BF00E000BF97F8233060
:101BC00018462837BD4680BDBC0100200400002017
:101BD00080B58AB002AFF860B9607A60FB7000230C
:101BE0007B610023FB610023FB7619E0FB69BA6887
:101BF000D1187A68FB69D21A07F11400FB780093B8
:101C00000346F868FFF752FF0346FB76FB7E002B86
:101C10000BD17B69FA691344FB61074B01221A70EF
:101C2000FA697B689A42E1DB00E000BFFB7E184660
:101C30002037BD4680BD00BFBC01002080B58CB000
:101C400002AFF860B9607A603B60002387F8233008
:101C5000FFF79EFE78620CE0F868FFF7E3FE0346AC
:101C600087F8233097F82330002B55D1FFF790FEEB
:101C700078627B6A002BEFD07B6A1A6C7B6A5B6CA4
:101C8000D31AFB617A68FB699A4203DB3B68FA6905
:101C90001A6002E03B687A681A607B6ABB617B6A03
:101CA0005B6CBA691344BB613B681B681A46B9692F
:101CB000B86804F0DDFB7B6A5B6C3A6812681A4412
:101CC0007B6A5A647B6A5A6C7B6A1B6C9A4225D188
:101CD000FFF7FAFD0346FB757B6A00221A647B6AF4
:101CE00000225A64FFF746FE03461846FFF710FE2F
:101CF000FB7D002B13D007F1100202230093134643
:101D000000220021F868FFF7D1FE034687F8233050
:101D100097F82330002B02E000BF00E000BF97F8E7
:101D2000233018462837BD4680BD80B584B000AF4B
:101D3000786039600023FB733B6800221A70FFF75C
:101D4000D5FD0346002B20D00023BB7307F10E0303
:101D50001946786800F062FE0346FB73FB7B002B9C
:101D600017D1BB7B002B17D07868FFF75BFE0346CB
:101D7000FB73FB7B002B0ED1FFF7B8FD0346002B56
:101D80000AD13B6801221A7006E03B6801221A70F2
:101D900002E000BF00E000BFFB7B18461037BD46E5
:101DA00080BD000080B400AF034B00221A7000BF5A
:101DB000BD465DF8047B7047BC01002080B500AFD4
:101DC00005E0FFF7B7FD0346184604F049FBFFF7AF
:101DD0007BFD0346002BF4D005E0FFF7CBFD034667
:101DE000184604F03DFBFFF781FD0346002BF4D0BD
:101DF000154B1B689B68184604F032FB124B1B689E
:101E000024220021184604F03EFB104B1B689B68FF
:101E1000184604F025FB0D4B1B68242200211846B0
:101E200004F031FB0A4B00221A60094B1B68094A77
:101E30001360094B00221A60074B1B68074A1360A6
:101E4000FFF7B0FF00BF80BD0000002004000020AD
:101E5000CC010020C8010020C4010020C0010020E6
:101E600090B587B000AF7860396000237B61402374
:101E7000FB600023FB7400F01DFD78617B69002B83
:101E800038D0FFF79BFF224B1C68F86804F0E0FA9B
:101E90000346A3601E4B1B689B68002B02D10123E5
:101EA000FB742AE01A4B1B68FA68DA60194B1C684D
:101EB000F86804F0CDFA0346A360164B1B689B68D4
:101EC000002B02D10123FB7417E0124B1B68FA6848
:101ED000DA60FFF769FD0346FB74FB7C002B0BD136
:101EE0003A687968786900F003FD0346FB74FB7C6F
:101EF000002B02E000BF00E000BFFB7C002B01D004
:101F000000237B617B6918461C37BD4690BD00BF2E
:101F1000040000200000002080B582B000AF78608F
:101F2000FFF74CFF786800F029FD03461846083794
:101F3000BD4680BD80B485B000AF78600023FB73E0
:101F4000FB7B18461437BD465DF8047B704780B4B0
:101F500083B000AF786039607B685B68002B14BF8A
:101F600001230023DBB21A463B681A70002318468F
:101F70000C37BD465DF8047B704780B582B000AF7A
:101F80007860FFF70FFF00BF0837BD4680BD80B502
:101F900082B000AF78607B685B68002B07D07B68FD
:101FA0005B681846FFF7B8FF7B6800225A6000BFE5
:101FB0000837BD4680BD000080B588B000AFF8602E
:101FC000B9607A600023FB610123BB610123FB75CB
:101FD0001DE0BB695A1CBA619B007A6813441B68F8
:101FE0003B613B69002B00D111E01549386904F0D1
:101FF00019FB0346002B0AD10123FB75BB6903F1D2
:102000008043013B9B007A68134400221A60BA693E
:10201000BB689A42DDDBFB68FA7D1A707968B868A4
:10202000FFF71EFF0246FB685A60FB685B68002BE7
:1020300001D1044BFB61FB6918462037BD4680BDCA
:10204000906600089466000880B483B000AF7860A2
:102050007B681B7818460C37BD465DF8047B7047DB
:1020600080B400AF024B1846BD465DF8047B704754
:10207000D001002080B483B000AF786000BF0C377F
:10208000BD465DF8047B704780B586B000AFF86050
:10209000B9607A603B600023FB75FB685B6807F101
:1020A000160211461846FFF740FE0346FB75FB7DFE
:1020B000002B12D1BB7D002B03D17B6800221A605C
:1020C0000CE0FB6858687B68BA683968FFF7B6FDB2
:1020D0000346FB75FB7D002B00E000BFFB7D18462F
:1020E0001837BD4680BD80B586B000AFF860B960D6
:1020F0007A603B600023FB75FB6858680123BA686F
:102100007968FFF765FD0346FB75FB7D002B03D166
:102110003B68BA681A6000E000BFFB7D18461837BC
:10212000BD4680BD80B485B000AFF860B9607A600C
:1021300000BF1437BD465DF8047B704780B582B0A0
:1021400000AF78607B685B68184600F017FC7B681E
:1021500000225A6000BF0837BD4680BD80B584B0FC
:1021600000AFF860B9607A60FFF7AAF80346002B69
:1021700014D00BE00F490020FFF754F97A68B968D2
:10218000F868FFF761F9B868FFF70CF90A4B1B68AC
:10219000002B03D17B681B78002BEBD0074B1B78FF
:1021A000DBB2042B02D0054B03221A7000BF10379C
:1021B000BD4680BDD8B80500D80100200800002029
:1021C00080B584B000AFF860B9607A60084B1B78C6
:1021D000DBB2042B07D07A68B968F868FFF734F9E6
:1021E000B868FFF7DFF800BF1037BD4680BD00BFFD
:1021F0000800002080B584B000AFF86087ED000BC8
:1022000097ED000BF868FFF7DDFA00BF1037BD4609
:1022100080BD80B500AFFFF7C2FA00BF80BD80B5BA
:1022200082B000AF78607868FFF7A4FA00BF083783
:10223000BD4680BD80B582B000AF7860FFF7C8F8BA
:1022400000BF0837BD4680BD80B582B000AF786062
:102250007868FFF74DFA00BF0837BD4680BD000023
:1022600090B583B000AF7860114BD3E900014FF017
:1022700000024FF0000304F077F80346002B0DD165
:102280000B4BD3E900014FF000030A4C1A462346DA
:1022900004F04CF80346002B00D105E0044BD3E9D1
:1022A00000347A68C2E9003400BF0C37BD4690BDE7
:1022B000100000200000F0BF80B582B000AF786051
:1022C0007868FFF7CDFF00BF0837BD4680BD80B5F9
:1022D00082B000AF7860396000210020FEF7BEFFB9
:1022E00000BF0837BD4680BD80B400AF00BFBD460B
:1022F0005DF8047B704700001EF0100F08BFB0EEC1
:10230000400A03B488B004A006904FF08070079094
:102310007FF006008646704703BC8047BFF36F8F8F
:1023200000DFFEE700BF00BF1EF0100F08BFB0EED9
:10233000400A1EF0040F0CBFEFF30880EFF3098092
:10234000816911F8020C10B101280DD00BE01EF0CC
:10235000100F0CBF1AB008B003BC80F3118803BC87
:1023600080F300880847FEE74EF61451CEF20001D4
:102370000A6842F001020A607047F4E700BF00BF3C
:1023800080B485B000AF78600023FB730023BB737B
:102390000F237B737B68DB78002B39D0274BDB68FE
:1023A000DB431B0ADBB203F00703FB73FB7BC3F1C8
:1023B0000403BB737A7BFB7B42FA03F37B737B687A
:1023C0005B781A46BB7B02FA03F3FB737B689A784F
:1023D0007B7B1340DAB2FB7B1343FB73FB7B1B015C
:1023E000FB73174A7B681B781344FA7B83F800233E
:1023F0007B681B7803F01F0311497A681278520931
:10240000D2B21046012202FA03F341F820300FE065
:102410007B681B7803F01F0309497A681278520918
:10242000D2B2104601229A4000F1200341F8232045
:1024300000BF1437BD465DF8047B704700ED00E037
:1024400000E100E080B582B000AF78603960144BE5
:10245000144A1A60124B00229A80134B134A1A60D6
:10246000114B00229A80104B0022DA800E4B002282
:102470005A6401210E4801F05FFC01214FF4003045
:1024800001F07AFC00F0C0F800F032F94FF4E120DE
:1024900000F0C0F9012318460837BD4680BD00BFD3
:1024A000E00D0020E0010020E80D0020E009002000
:1024B0000100200080B483B000AF7860002318468C
:1024C0000C37BD465DF8047B7047000080B584B0D2
:1024D00000AFF860B9607A603B6000BF194801F056
:1024E00058F90346002BF9D17B68B3F5806F28BFFC
:1024F0004FF480637B60144B1B687A68B968184698
:1025000003F0B6FF7B689BB21A460F4B9A610E4BE5
:102510001B681A460C4B1A610C490A4801F06EF808
:1025200001221021074801F04CF90121054801F072
:10253000BDF83B687A681A60002318461037BD461C
:1025400080BD00BFA0600240E80D0020F00D00201B
:1025500080B500AF0649074801F06EF90346002B2D
:1025600003D00349034801F0BFF900BF80BD00BF9D
:1025700000802020A060024080B588B000AFF860E5
:10258000B9607A603B6000F009F903461A467B683F
:1025900093422FD81B4B9B88FB821A4B1B683B61D5
:1025A000BB68BB610023FB6110E0FB8A3A691A44F7
:1025B000BB69591CB96112781A70FB8A01339BB24E
:1025C000C3F30A03FB82FB690133FB61FB697A6891
:1025D0009A42EAD80B4B9B889AB27B689BB2134411
:1025E0009BB2C3F30A039AB2064B9A803B687A689F
:1025F0001A6002E03B6800221A6000231846203768
:10260000BD4680BDE00D002080B592B000AF3348DC
:1026100000F020FF00BF314801F0BBF80346002B5B
:10262000F9D14FF000637B6000233B612C4B1B68AA
:10263000FB604FF400637B612A4BBB600023BB61EE
:102640004FF48063FB6100233B6200237B624FF405
:102650008073BB624FF44033FB6200233B63032370
:102660007B630023BB630023FB633B1D19461B48B0
:1026700000F0C4FF102387F84030002387F8413072
:10268000002387F84230012387F8433007F14003E5
:102690001846FFF775FE01221021104801F091F84D
:1026A00001210E4801F002F80F4B7B6400BF0B487C
:1026B00001F06FF80346012B04D07B6C5A1E7A643C
:1026C000002BF4DC7B6C002B04DC084B4FF0FF325A
:1026D0001A60FEE700BF4837BD4680BD88600240F3
:1026E000E00D00200444004040420F00DC010020C7
:1026F00080B582B000AF264800F0ACFE00BF244891
:1027000001F047F80346002BF9D1224B4FF000624D
:102710009A60204B40225A611E4B1B681A461D4B83
:102720001A611C4B01229A611A4B1B4ADA60194B41
:102730000022DA61174B4FF480621A62154B0022B7
:102740005A62144B00229A62124B0022DA62114B39
:102750004FF440321A630F4B00225A630D4B032291
:102760009A630C4B0022DA630A4B00221A6411238D
:102770003B7100237B710023BB710123FB713B1D67
:102780001846FFF7FDFD00BF0837BD4680BD00BFFE
:10279000A0600240E80D00200444004080B582B0F3
:1027A00000AF104800F09EFF0346C3F500637B6056
:1027B0000D4B9B889BB21A467B68934206DB0A4B03
:1027C0009B889BB21A467B689B1A06E0064B9B8847
:1027D0009BB2C3F500627B68134418460837BD46B8
:1027E00080BD00BF88600240E00D002080B500AFD2
:1027F0000649074801F020F80346002B03D003499F
:10280000034801F071F800BF80BD00BF00880020C0
:102810008860024080B588B000AF786007F1180387
:10282000184601F01DF90C23BB6102233B770023FE
:10283000BB770123FB7702237B7707F11803194647
:102840001A4801F07FF807220221184801F022F906
:1028500007220321154801F01DF907F10803184666
:1028600001F0A8FB7B68BB600023BB810023FB81D8
:1028700000233B820023BB820C237B8207F10803E9
:1028800019460B4801F0DCFA01224021084801F00A
:10289000CEFB01228021064801F0C9FB012104483A
:1028A00001F0A5FB00BF2037BD4680BD00000240FF
:1028B0000044004080B483B000AF0C4B7B60012328
:1028C0003B603B78012B03D07B6800221A7002E04A
:1028D0007B6801221A707B6800225A707B68184658
:1028E0000C37BD465DF8047B704700BF340E0020F6
:1028F00090B587B000AFF860B9607A600023FB75CF
:10290000FB685B78002B02D00123FB752EE01021C1
:10291000012003F05DFD03461A46174B1A60164B63
:102920001B68002B02D10123FB751FE0124B1B68B3
:1029300000221A73104B1B6800225A73FB68012295
:102940005A700D4B1C687968B868FFF77BFD034629
:102950002360094B1B681B68B3F1FF3F05D1FB687F
:1029600000225A700123FB7500E000BFFB7D184672
:102970001C37BD4690BD00BF300E002080B584B02E
:1029800000AF78600023FB737B685B78002B01D17C
:10299000012319E07B6800225A700D4B1B681B68ED
:1029A0001846FFF787FDB860094B1B68002B04D061
:1029B000074B1B68184603F053FDBB68B3F1FF3F9C
:1029C00001D10123FB73FB7B18461037BD4680BD48
:1029D000300E002080B586B000AFF860B9607A6034
:1029E0000023FB75FB685B78002B01D101230FE00E
:1029F000094B1B681B687A68B968184600F0BCF878
:102A000038613B69B3F1FF3F01D10123FB75FB7DC9
:102A100018461837BD4680BD300E002080B586B000
:102A200000AF786039600023FB750023FB607B6892
:102A30005B78002B01D1012330E01A4B1B681B7B14
:102A4000002B04D03B6801221A70FB7D26E03B6816
:102A500000221A70134B1B681868124B1B68191D53
:102A600007F10C030822FFF787FD38613B69B3F1DA
:102A7000FF3F03D10123FB75FB7D0FE0FB68002BBB
:102A80000BD03B6801221A70FA68064B1B68D2B261
:102A90001A73044B1B6800225A73FB7D18461837C3
:102AA000BD4680BD300E002080B588B000AFF86014
:102AB000B9607A603B600023FB7700237B610023D1
:102AC0003B617B68BB613B6800221A60FB685B78F6
:102AD000002B01D1012349E0264B1B681B7B002BF7
:102AE00030D0244B1B681B7B1A46BB69934228BF1E
:102AF00013463B611F4B1B681E4A1268527B1344EE
:102B000004333A691946B86803F0B2FC194B1B68E4
:102B1000197B3B69DAB2174B1B688A1AD2B21A7357
:102B2000144B1B68597B3B69DAB2124B1B680A4491
:102B3000D2B25A73BA683B691344BB60BA693B6945
:102B4000D31ABB610B4B1B681B68BA69B96818467E
:102B500000F044F878617B69B3F1FF3F02D10123B3
:102B6000FB7702E03B687A681A60FB7F18462037E3
:102B7000BD4680BD300E002080B58AB000AFF86041
:102B8000B9607A6000237B62BB683B624FF0FF3321
:102B9000FB611BE07A68FB69934228BF1346BB6167
:102BA00007F11403BA69396AF868FFF78FFC786295
:102BB0007B6AB3F1FF3F01D17B6A0BE07B697A68E6
:102BC000D31A7B607B693A6A13443B627B68002BB3
:102BD000E0D17B6A18462837BD4680BD80B58AB0F3
:102BE00000AFF860B9607A6000237B62BB683B622B
:102BF0004FF0FF33FB611BE07A68FB69934228BF0B
:102C00001346BB6107F11403BA69396AF868FFF724
:102C1000B3FC78627B6AB3F1FF3F01D17B6A0BE0C2
:102C20007B697A68D31A7B607B693A6A13443B629A
:102C30007B68002BE0D17B6A18462837BD4680BDF3
:102C400080B582B000AF114B7B60114B3B6007E059
:102C50007A68131D7B603B68191D396012681A6021
:102C60003B680C4A9342F3D30B480C494FF00002E7
:102C70008842B8BF40F8042BFADB01F035FAFDF7C3
:102C8000A3FA00BF0837BD4680BD00BF7C670008BF
:102C9000000000203401002038010020D0BF0020B7
:102CA00080B400AFFEE7000080B582B000AF78606E
:102CB0003960002000F078FF002001F02DF83B681B
:102CC0001A077B689B0109491343C1F8843001202E
:102CD00000F06AFF00BF054B1B6803F00063002B88
:102CE000F9D000BF0837BD4680BD00BF00380240A4
:102CF00090B589B000AF7860084611461A46034681
:102D0000FB700B46BB7013467B70464B9B6803F40D
:102D10000003002B05D0434B9B68424A23F4000379
:102D20009360404BD3F884309B099BB2C3F30803F4
:102D30007B833C4BD3F884301B0F9BB203F007031B
:102D40003B83384B5B689BB203F03F03FB82FB8AFB
:102D5000354AB2FBF3F37A8B02FB03F23B8BB2FBF7
:102D6000F3F33B613B6907EE903AF8EE676ABB7894
:102D7000FA7802FB03F31A467B6803FB02F307EEC3
:102D8000903AB8EE677AC6EE877AC7ED077A7B7815
:102D9000002B0DD0BB78102B02D1B2EE007A01E0EF
:102DA000B1EE007AD7ED076AC6EE877AC7ED077AEB
:102DB000F86902F0FBFF4FF000021C4B02F098FE96
:102DC00003460C461846214603F0E2FA0346FB6030
:102DD000FB68DBB203F00103FB72FB7AFA68D31ADB
:102DE0005B083B813B89012B06D83B6B02221A70A2
:102DF0007B6B00221A7010E03B89FF2B06D93B6BDE
:102E0000FF221A707B6B00221A7006E03B89DAB24F
:102E10003B6B1A707B6BFA7A1A7000BF2437BD4681
:102E200090BD00BF0038024000127A000000E03F71
:102E300080B487B000AFF8607B600B46FB7213462E
:102E4000BB720023FB82FB689B8BFB82FB7A9AB2EE
:102E5000BB7A1B0219B27B68DB881BB20B431BB227
:102E60009BB213439AB2FB681A847B681A887B680A
:102E700059887B6898887B689B8903439BB20B4386
:102E80009BB213439AB2FB8A13439BB243F4006391
:102E9000FB82FB68FA8A9A8300BF1C37BD465DF847
:102EA000047B7047F8B500AF4FF480523449354881
:102EB00003F0DEFA0120FFF7B2F9334B93ED087B04
:102EC000B0EE470AF0EE670A0020FFF793F92E4BA9
:102ED000D3E90E014FF000022C4B03F027FA034612
:102EE000002B2FD1284BD3E90E01274BD3E908340F
:102EF0001A46234602F0FAFD03460C4625461C46B8
:102F0000214BD3E908014FF00002214B02F0A6FF4C
:102F100002460B4611461A4601231E4613460A4630
:102F20002046294603F02AFA0346002B01D100234C
:102F30001E46F3B283F00103DBB2002B02D0124B2A
:102F4000144A1A60104B93F84030002B02D00E4BFD
:102F5000104A1A600C4B9A6A01329A629B6A1846B0
:102F600002F002FF084BD3E90C34074D1A46234602
:102F700002F074FF03460C46C5E9083400BFF8BDF3
:102F8000800F0020801F0020802F00200000F0BF55
:102F90000000B03C5467000890B583B002AF364BD8
:102FA00048220021184603F06EFA334A2EA4D4E9D1
:102FB0000034C2E90E34304A2DA4D4E90034C2E909
:102FC0000C342D4B2D4A9A602B4B2D4ADA602A4B3C
:102FD0002C4A1A61284B2C4A5A61274B2B4A5A60BB
:102FE0002A4B2B4A1A602A4B2A4A1A60224A224B41
:102FF0005B6818329A60204A1F4B5B6808325A603F
:103000001D4A1D4B5B682032DA604FF4805200216C
:10301000214803F038FA4FF4805200211F4803F092
:1030200032FA282200211E4803F02DFA124B1C4AC6
:103030009A611B4B0E221A60194B1A4A5A60184BA0
:10304000194A9A60164B194ADA60134B0093012310
:103050000A224FF4FA514FF47A5000F0DFF900BF22
:103060000437BD4690BD00BF2B8716D9CEF723404D
:10307000FCA9F1D24D62C03F802F0020A082E53F25
:1030800015C34E41A42382DED2798D24380E002050
:103090004C0E00206C670008800F0020801F00206D
:1030A000500E002018000020500000209800002042
:1030B00080B400AF00BFBD465DF8047B70470000E0
:1030C00080B483B000AF0346FB7197F90730002B43
:1030D0000BDBFB7903F01F02074997F907305B0907
:1030E000012000FA02F241F8232000BF0C37BD4650
:1030F0005DF8047B704700BF00E100E080B483B05E
:1031000000AF03463960FB7197F90730002B0ADBEB
:103110003B68DAB20C4997F907301201D2B20B447E
:1031200083F800230AE03B68DAB20849FB7903F030
:103130000F03043B1201D2B20B441A7600BF0C37C6
:10314000BD465DF8047B704700E100E000ED00E063
:1031500080B483B000AF0346FB7197F90730002BB2
:1031600009DB0D4A97F90730134493F80033DBB2BB
:103170001B09DBB209E0094AFB7903F00F03043BAA
:1031800013441B7EDBB21B09DBB218460C37BD466D
:103190005DF8047B704700BF00E100E000ED00E057
:1031A00080B485B000AF78607B6801331B017B6021
:1031B0007B68FB60FB6883F3118800BF1437BD4652
:1031C0005DF8047B7047000080B582B000AF01213C
:1031D000062000F0B1FD4FF480633B6002233B7199
:1031E0000023BB7102237B710023FB713B46194610
:1031F0000F4800F0A7FB05220A210D4800F04AFC09
:1032000008233B6002233B710023BB7102237B71C7
:103210000023FB713B461946064800F093FB05224C
:103220000321044800F036FC00BF0837BD4680BDCE
:10323000000402400008024080B58AB002AF786006
:1032400001214FF4804000F097FD7B687B610023F3
:103250007B8200233B824FF44073BB812023FB81A0
:1032600008233B837B6898017B8ADAB207F11E034F
:10327000019307F11F030093134601220121FFF779
:1032800037FDF97FBA7F07F10C030848FFF7D0FD3F
:1032900001220121054800F0AFFD0121034800F0A3
:1032A0008BFD00BF2037BD4680BD00BF0038004009
:1032B00080B592B000AF78600B46FB7001214FF4EF
:1032C000001000F039FD2C4800F0C4F800BF2A4877
:1032D00000F05FFA0346002BF9D10023FB60274B77
:1032E0003B61274B7B610023BB617B68FB61002353
:1032F0003B624FF480637B624FF40063BB624FF428
:103300000053FB624FF480733B634FF440337B63A5
:103310000423BB630323FB6300233B6400237B6420
:1033200007F10C031946144800F068F9144B002209
:103330001946114800F0FFF9124B4FF400221946CC
:103340000D4800F0F8F901210B4800F0D8F90122EE
:103350001021094800F035FA0E20FFF7B1FEFB7886
:1033600019460E20FFF7CAFE0121034800F09EF91E
:1033700000BF4837BD4680BD586002400C38004051
:10338000C86F0020C82F002080B582B000AFBFF307
:103390004F8FBFF36F8F0E4800F0E3F90346002B09
:1033A00003D10B4B1B697B6002E0094BDB687B6040
:1033B000084B1B684FF400621946786802F0AAFABD
:1033C00072B6FCF7BDFF62B600BF0837BD4680BDD0
:1033D00058600240C8AF0020EFF3008001B5EFF362
:1033E000118003B40E20FFF7B3FE03461846FFF723
:1033F000D7FE0749074800F01FFA0346002B06D006
:103400000349044800F070FA0348FEF775FF00BF57
:1034100000800018586002408933000880B584B0ED
:1034200000AFF860B9607A60FB70094ABB6913604D
:10343000FFF7CAFEF868FFF7FFFEFB7819464FF466
:103440000050FFF735FF00BF1037BD4680BD00BFFD
:10345000C8AF002080B483B000AF78607B681B6881
:1034600023F001027B681A607B6800221A607B6887
:1034700000225A607B6800229A607B680022DA6032
:103480007B6800221A617B6821225A617B68464A68
:10349000934203D1454B3D229A607EE07B68444ACB
:1034A000934204D1414B4FF474629A6075E07B689B
:1034B000404A934204D13D4B4FF474129A606CE041
:1034C0007B683D4A934204D1384B4FF074629A6056
:1034D00063E07B68394A934203D1344B384ADA605F
:1034E0005BE07B68374A934203D1304B364ADA605F
:1034F00053E07B68354A934203D12C4B344ADA605F
:103500004BE07B68334A934204D1284B4FF03D5245
:10351000DA6042E07B68304A934203D12F4B3D2270
:103520009A603AE07B682E4A934204D12B4B4FF4C9
:1035300074629A6031E07B682A4A934204D1274B37
:103540004FF474129A6028E07B68274A934204D1B2
:10355000224B4FF074629A601FE07B68234A9342CB
:1035600003D11E4B164ADA6017E07B68204A93426B
:1035700003D11A4B144ADA600FE07B681D4A93426C
:1035800003D1164B124ADA6007E07B681A4A93426D
:1035900003D1124B4FF03D52DA6000BF0C37BD46ED
:1035A0005DF8047B704700BF10600240006002407D
:1035B0002860024040600240586002407060024053
:1035C0003D00002088600240400F0020A0600240C3
:1035D00000003D20B86002401064024000640240D8
:1035E0002864024040640240586402407064024013
:1035F00088640240A0640240B864024080B485B090
:1036000000AF786039600023FB607B681B68FB605B
:10361000FA68254B1340FB603B681A683B68DB681F
:103620001A433B685B691A433B689B691A433B68D2
:10363000DB691A433B681B6A1A433B685B6A1A439F
:103640003B689B6A1A433B685B6B1A433B689B6B06
:103650001343FA681343FB607B68FA681A607B685F
:103660005B69FB60FB6823F00703FB603B68DA6A79
:103670003B681B6B1343FA681343FB607B68FA6873
:103680005A613B681A697B685A603B685A687B6874
:103690009A603B689A687B68DA6000BF1437BD4661
:1036A0005DF8047B704700BF3F801CF080B483B09E
:1036B00000AF78600B46FB70FB78002B06D07B6870
:1036C0001B6843F001027B681A6005E07B681B6899
:1036D00023F001027B681A6000BF0C37BD465DF81D
:1036E000047B704780B483B000AF78607B685B6810
:1036F0009BB218460C37BD465DF8047B704780B41A
:1037000083B000AF78600B46FB70FB78002B06D0CF
:103710007B681B6843F480227B681A6005E07B6845
:103720001B6823F480227B681A6000BF0C37BD46FB
:103730005DF8047B704780B485B000AFF860B96075
:103740007A607B68002B03D0FB68BA681A6102E0DC
:10375000FB68BA68DA6000BF1437BD465DF8047BC9
:10376000704780B485B000AF78600023FB607B6851
:103770001B6803F40023002B02D00123FB6001E04F
:103780000023FB60FB6818461437BD465DF8047BD8
:10379000704780B485B000AF78600023FB737B680E
:1037A0001B6803F00103002B02D00123FB7301E02F
:1037B0000023FB73FB7B18461437BD465DF8047B82
:1037C000704780B485B000AFF860B9601346FB71F4
:1037D000BB6803F08003002B0FD0FB79002B06D0D1
:1037E000FB685B6943F08002FB685A6105E0FB6897
:1037F0005B6923F08002FB685A61BB68802B14D0A0
:10380000FB79002B08D0FB681A68BB6803F01E0325
:103810001A43FB681A6008E0FB681A68BB6803F08B
:103820001E03DB431A40FB681A6000BF1437BD4615
:103830005DF8047B7047000080B487B000AF78600B
:1038400039600023FB750023FB600023BB607B68AD
:10385000224A934202D8224B3B6101E0214B3B615B
:103860003B6823F0F02323F0C313002B0AD03B68FE
:10387000DB0A03F01E03FB607B681B68FA681340D9
:10388000BB6004E07B685B6903F08003BB603B685E
:1038900003F00053002B03D03B695B68FB6002E040
:1038A0003B691B68FB60FB6823F0F02323F0821365
:1038B000FB60FA683B681340002B05D0BB68002B07
:1038C00002D00123FB7501E00023FB75FB7D184648
:1038D0001C37BD465DF8047B704700BF0F64024093
:1038E000006002400064024080B485B000AF7860A0
:1038F00039607B68104A934202D8104BFB6001E0AC
:103900000F4BFB603B6803F00053002B07D03B6874
:1039100023F0F02323F08213FA68D36006E03B68BB
:1039200023F0F02323F08213FA68936000BF14376A
:10393000BD465DF8047B70470F64024000600240A2
:103940000064024080B487B000AF78603960002323
:103950007B6100233B610023FB6000237B6176E0F9
:1039600001227B6902FA03F33B613B681B683A69F9
:103970001340FB60FA683B699A4265D17B681A681C
:103980007B695B00032101FA03F3DB431A407B6888
:103990001A607B681A683B681B7919467B695B0073
:1039A00001FA03F31A437B681A603B681B79012B09
:1039B00003D03B681B79022B2ED17B689A687B6908
:1039C0005B00032101FA03F3DB431A407B689A6032
:1039D0007B689A683B685B7919467B695B0001FAF2
:1039E00003F31A437B689A607B685A687B699BB2D1
:1039F000194601238B40DB431A407B685A607B6881
:103A00005B683A68927911467A6992B201FA02F2D9
:103A100092B21A437B685A607B68DA687B699BB212
:103A20005B00032101FA03F3DB431A407B68DA6091
:103A30007B68DA683B68DB7919467B695B0001FAD1
:103A400003F31A437B68DA607B6901337B617B692E
:103A50000F2B85D900BF1C37BD465DF8047B70472E
:103A600080B483B000AF78607B684FF6FF721A6055
:103A70007B6800221A717B6800225A717B680022E1
:103A80009A717B680022DA7100BF0C37BD465DF881
:103A9000047B704780B485B000AF78600B467B80B4
:103AA00013467B700023FB600023BB607A787B8821
:103AB00003F007039B0002FA03F3FB607B88DB083B
:103AC0009BB21A467B68083253F822207B8803F0A9
:103AD00007039B000F2101FA03F3DB437988C90830
:103AE00089B2084602EA03017B6800F1080243F844
:103AF00022107B88DB089BB21A467B68083253F899
:103B00002230FA681343BB607B88DB089BB21A46FD
:103B10007B680832B96843F8221000BF1437BD46ED
:103B20005DF8047B7047000080B483B000AF0346AB
:103B30003960FB7197F90730002B0ADB3B68DAB27A
:103B40000C4997F907301201D2B20B4483F80023D5
:103B50000AE03B68DAB20849FB7903F00F03043B43
:103B60001201D2B20B441A7600BF0C37BD465DF885
:103B7000047B704700E100E000ED00E080B500AF9D
:103B8000084B5B69074A43F40073536100216FF0EF
:103B90000400FFF7C9FF0221D520FFF785F800BF19
:103BA00080BD00BF00ED00E080B483B000AF0346ED
:103BB000FB71044AFB79136000BF0C37BD465DF80A
:103BC000047B70476800474280B489B000AF7860DA
:103BD0000023BB6100237B610023FB6102233B6167
:103BE0000023FB600223BB60474B9B6803F00C0380
:103BF000BB61BB69042B07D0082B09D0002B3DD13A
:103C00007B68424A1A603DE07B68414A1A6039E0AD
:103C10003D4B5B689B0D03F00103FB603A4B5B6817
:103C200003F03F03BB60FB68002B0CD0384ABB6835
:103C3000B2FBF3F3344A52689209C2F3080202FB62
:103C400003F3FB610BE0314ABB68B2FBF3F32E4A8E
:103C500052689209C2F3080202FB03F3FB612A4B8C
:103C60005B681B0C03F0030301335B003B61FA69E3
:103C70003B69B2FBF3F27B681A6003E07B68234A7E
:103C80001A6000BF204B9B6803F0F003BB61BB6967
:103C90001B09BB611F4ABB6913441B78DBB27B6104
:103CA0007B681A687B69DA407B685A60164B9B68B0
:103CB00003F4E053BB61BB699B0ABB61154ABB6956
:103CC00013441B78DBB27B617B685A687B69DA40FE
:103CD0007B689A600C4B9B6803F46043BB61BB69D3
:103CE0005B0BBB610B4ABB6913441B78DBB27B6186
:103CF0007B685A687B69DA407B68DA6000BF2437EA
:103D0000BD465DF8047B7047003802400024F40093
:103D100000127A00A000002080B483B000AF786069
:103D2000044A7B68136000BF0C37BD465DF8047B16
:103D3000704700BF5C01474280B483B000AF786039
:103D40000B46FB70FB78002B06D00A4B1A6B094917
:103D50007B6813430B6306E0064B1A6B7B68DB43FF
:103D6000044913400B6300BF0C37BD465DF8047B6C
:103D7000704700BF0038024080B483B000AF786065
:103D80000B46FB70FB78002B06D00A4B1A6C0949D6
:103D90007B6813430B6406E0064B1A6C7B68DB43BD
:103DA000044913400B6400BF0C37BD465DF8047B2B
:103DB000704700BF0038024080B483B000AF786025
:103DC0000B46FB70FB78002B08D07B689B8B9BB26B
:103DD00043F480639AB27B689A8307E07B689B8B8D
:103DE0009BB223F480639AB27B689A8300BF0C373E
:103DF000BD465DF8047B704780B483B000AF786047
:103E00000B467B8013467B707B78002B08D07B6849
:103E10009B889AB27B8813439AB27B689A8009E0A8
:103E20007B689B889AB27B88DB439BB213409AB233
:103E30007B689A8000BF0C37BD465DF8047B7047F5
:103E400080B58AB000AF7860396000237B620023C0
:103E50003B620023FB610023BB617B681B8A9BB232
:103E60007B627B6A23F440537B623B68DB881A46A3
:103E70007B6A13437B627B6A9AB27B681A827B6897
:103E80009B899BB27B627B6A23F4B05323F00C03C3
:103E90007B623B689A883B681B8913439AB23B68F4
:103EA0005B8913439BB21A467B6A13437B627B6A2E
:103EB0009AB27B689A817B689B8A9BB27B627B6AA1
:103EC00023F440737B623B689B891A467B6A1343E9
:103ED0007B627B6A9AB27B689A8207F10803184674
:103EE000FFF772FE7B68304A934203D07B682F4A0B
:103EF000934202D17B693B6201E03B693B627B6894
:103F00009B899BB21BB2002B0CDA3A6A13469B00CA
:103F100013449A001A443B681B685B00B2FBF3F33E
:103F2000FB610BE03A6A13469B0013449A001A4463
:103F30003B681B689B00B2FBF3F3FB61FB691C4A07
:103F4000A2FB03235B091B017B627B6A1B096422C2
:103F500002FB03F3FA69D31ABB617B689B899BB2AE
:103F60001BB2002B0CDABB69DB003233104AA2FB18
:103F700003235B0903F007037A6A13437B620BE0B8
:103F8000BB691B0132330A4AA2FB03235B0903F01E
:103F90000F037A6A13437B627B6A9AB27B681A8149
:103FA00000BF2837BD4680BD00100140001401400D
:103FB0001F85EB5180B483B000AF78607B684FF40D
:103FC00016521A607B6800229A807B680022DA8091
:103FD0007B6800221A817B680C225A817B68002250
:103FE0009A8100BF0C37BD465DF8047B704780B4F2
:103FF00083B000AF78600B46FB70FB78002B08D0D5
:104000007B689B899BB243F400539AB27B689A8188
:1040100007E07B689B899BB223F400539AB27B68CC
:104020009A8100BF0C37BD465DF8047B704780B4B1
:1040300083B000AF78600B467B8013467B707B7843
:10404000002B08D07B689B8A9AB27B8813439AB274
:104050007B689A8209E07B689B8A9AB27B88DB4303
:104060009BB213409AB27B689A8200BF0C37BD4660
:104070005DF8047B704780B483B000AF7860FEE7E2
:1040800080B485B000AF7860134B1B68002B02D161
:10409000114B124A1A60104B1B68FB600E4B1B68D9
:1040A0001A467B681344073323F00703BB60BB68E1
:1040B0000B4A934205D30B4B0C221A604FF0FF338F
:1040C00003E0054ABB681360FB6818461437BD4619
:1040D0005DF8047B704700BF780E00204020001080
:1040E00000000110CCBF002080B500AF164BD3F804
:1040F0008830154A43F47003C2F88830134B1B68AC
:10410000124A43F001031360104B00229A600F4BD8
:104110001B680E4A23F0847323F4803313600B4B27
:104120000B4A5A60094B1B68084A23F4802313602A
:10413000064B0022DA6000F089F8034B4FF0006272
:104140009A6000BF80BD00BF00ED00E00038024073
:104150001030002480B487B000AF00233B610023FF
:104160007B610223FB600023BB6002237B60324B38
:104170009B6803F00C033B613B69042B07D0082BC1
:1041800009D0002B3DD12D4B2D4A1A603DE02B4B21
:104190002C4A1A6039E0284B5B689B0D03F0010341
:1041A000BB60254B5B6803F03F037B60BB68002B63
:1041B0000CD0244A7B68B2FBF3F31F4A5268920981
:1041C000C2F3080202FB03F37B610BE01C4A7B682D
:1041D000B2FBF3F3184A52689209C2F3080202FBD9
:1041E00003F37B61144B5B681B0C03F00303013387
:1041F0005B00FB607A69FB68B2FBF3F30F4A136064
:1042000003E00E4B0E4A1A6000BF0B4B9B681B0964
:1042100003F00F030C4AD35CDBB23B61074B1A6817
:104220003B6922FA03F3054A136000BF1C37BD4601
:104230005DF8047B704700BF00380240B0000020EA
:104240000024F40000127A00B400002080B483B08F
:1042500000AF00237B6000233B60364B1B68354A70
:1042600043F480331360334B1B6803F400333B602B
:104270007B6801337B603B68002B03D17B68B3F51F
:10428000A06FF0D12B4B1B6803F40033002B02D03E
:1042900001233B6001E000233B603B68012B42D1DE
:1042A000244B1B6C234A43F080531364224B1B683E
:1042B000214A43F4804313601E4B1E4A9B6893605F
:1042C0001C4B9B681B4A43F400439360194B9B684B
:1042D000184A43F4A0539360164B184A5A60154B82
:1042E0001B68144A43F08073136000BF114B1B68B6
:1042F00003F00073002BF9D0114B40F205621A60F5
:104300000C4B9B680B4A23F003039360094B9B689B
:10431000084A43F00203936000BF064B9B6803F01A
:104320000C03082BF9D100BF0C37BD465DF8047BA8
:10433000704700BF0038024000700040085440073A
:10434000003C024080B596B000AF786039603B68B1
:104350003B650023FB640123BB6402237B640323CE
:104360003B641023FB637B689B681B68BB63BB6B70
:104370001B697B63BB6B5B683B633B6D1B68BB610D
:104380003B6D04333B6500237B655EE0FA6B07F110
:104390000803396D184602F06BF8FB6B3A6D134455
:1043A0003B657B6B5A68FB6C9B0007F158010B4423
:1043B00053F8503C1B0113441B68FB627B6B5A682B
:1043C000FB6C9B0007F158010B4453F8503C1B0158
:1043D00013449B68BB623B6C9B0007F1580213447B
:1043E00053F8503C9B003A6B13441A68BB6A002B8D
:1043F00001D0022300E0012302FB03F37B627B6C0C
:104400009B0007F15802134453F8502C7B6A02FBBF
:1044100003F33B62BB6C9B0007F15802134453F853
:10442000503C7A6A02FB03F31A46FB6A1344FB61B1
:104430003B6A1A46396DF86902F01AF83B6A3A6D20
:1044400013443B657B6D01337B65BB697A6D9A4292
:104450009CDB00BF5837BD4680BD80B491B000AF33
:10446000F860B9607A60FB689B681B68FB63FB6B54
:10447000DB68BB63FB6B5B687B6300233B630123EF
:10448000FB620223BB6203237B62BB6B5A683B6BFC
:104490009B00B9680B441B681B0113441B683B62FB
:1044A000BB6B5A683B6B9B00B9680B441B681B01D4
:1044B00013449B68FB617B6A9B00BA6813441B68CA
:1044C0009B007A6B13441A68FB69002B01D002230E
:1044D00000E0012302FB03F3BB61BB6A9B00BA68E7
:1044E00013441A68BB6902FB03F37B61FB6A9B0000
:1044F000BA6813441A68BB6902FB03F33B613B696A
:104500003A6A1A447B681A607B687A695A6000BF0D
:104510004437BD465DF8047B704790B593B000AF5B
:10452000F860B9607A603B603B681B683B640023BD
:1045300087F83F303B6C1B68BB623B6C04333B64C9
:10454000FB681A68BB6A9B0013441A687B681A6090
:104550003B6C1B68FB623B6C04333B64BB6804210F
:10456000184601F035FF03461A467B685A607B689F
:104570005B68002B03D1012387F83F3075E00023EF
:104580007B646DE03B6C1B687B623B6C04333B647B
:104590007B685A687B6A9B00D4180C21012001F0CB
:1045A00017FF034623607B685A687B6A9B001344AD
:1045B0001B68002B03D1012387F83F3055E07B684F
:1045C0005A687B6A9B0013441B687B637B6B3A6C65
:1045D00012681A603B6C04333B647B6B1B68002BD6
:1045E00012DD7B6B1B680821184601F0F1FE0346C3
:1045F0001A467B6B5A607B6B5B68002B04D10123EE
:1046000087F83F3000BF30E00023BB6320E07B6BC6
:104610005A68BB6BDB0013443B6307F114031022A1
:10462000396C184601F024FF3B6C10333B6407F1F2
:1046300014033A6B1946F868FFF70FFF7B6B9A6813
:104640003B6B5B681A447B6B9A60BB6B0133BB634B
:104650007B6B1B68BA6B9A42D9DB7B6C01337B6442
:10466000FB6A7A6C9A428DDB00BF3B683A6C1A6039
:1046700097F83F3018464C37BD4690BD80B584B0A2
:1046800000AF786039600023FB733B68002B02DACF
:104690000123FB7325E07B6801221A603B68002B35
:1046A0000EDD3B68184601F0D3FE03461A467B68D0
:1046B0009A607B689B68002B05D10123FB7310E097
:1046C0007B6800229A607B683A685A607B689A68C7
:1046D0007B68DA607B689A687B681A617B68002275
:1046E0005A61FB7B18461037BD4680BD90B587B038
:1046F00000AF78607A681346DB009B1A1B012E4AD4
:1047000013447B617B6920333B613B693033FB6041
:10471000FB685B68002B07D0FB685B68184601F0FC
:104720009FFEFB6800225A603B69DB6B002B07D0C1
:104730003B69DB6B184601F093FE3B690022DA63AC
:104740003B6900221A703B6900229A603B69002293
:10475000DA603B6900221A613B6901225A613B69B8
:1047600000229A613A694FF000034FF00004C2E959
:1047700008343B6900229A623B690022DA623B6995
:1047800000221A633B6900225A633B6900229A6344
:104790003B690022DA633B6900221A643B6900220C
:1047A0005A643B6900229A643B690022DA6400BFC4
:1047B0001C37BD4690BD00BF800E002080B584B080
:1047C00000AF78607A681346DB009B1A1B01144A1D
:1047D0001344FB60134A7B6813441B78002B09D0F9
:1047E00070220021F86801F04EFE0E4A7B681344E7
:1047F00000221A70FB6800225A60FB6800229A604F
:10480000FB680022DA60FB6800229A61FB680022E4
:104810005A617868FFF76AFF00BF1037BD4680BD58
:10482000800E0020C400002080B586B000AF786004
:1048300039607A681346DB009B1A1B013B4A13441C
:10484000FB60FB685B68002B6BD000237B612EE074
:10485000FB689A687B69DB0013445B68BB600023DC
:104860003B611AE03B699B00BA6813441B68002B4C
:1048700010D03B699B00BA6813441B685B681846FC
:1048800001F0EEFD3B699B00BA6813441B681846B3
:1048900001F0E6FD3B6901333B613A693B689A42AE
:1048A000E0DBB86801F0DCFD7B6901337B61FB680C
:1048B0005B687A699A42CBDBFB689B68184601F01B
:1048C000CFFDFB68DB68002B1AD000237B610EE074
:1048D000FB68D9687A691346DB009B1A9B000B447E
:1048E0009B68184601F0BCFD7B6901337B617A69E6
:1048F0003B689A42ECDBFB68DB68184601F0B0FDD0
:10490000FB689B69184601F0ABFDFB685B691846C4
:1049100001F0A6FD7868FFF7E9FE7868FFF74EFF23
:1049200000E000BF1837BD4680BD00BF800E0020EC
:1049300080B485B000AF78607A681346DB009B1ABC
:104940001B01134A1344FB60FB6893F82030052BCE
:1049500018D801A252F823F08349000883490008BF
:10496000834900088349000871490008714900081B
:10497000FB68052283F82020FB684FF0FF32DA62E3
:1049800000E000BF00BF1437BD465DF8047B7047F0
:10499000800E002080B58AB000AFF860B9607A6000
:1049A0003B600023FB777B687B613A681346DB0042
:1049B0009B1A1B01544A1344BB61BB693A681A60D5
:1049C000B9683868FFF730FFBB6904337A69126849
:1049D0001A607B6904337B61BB695B6808211846F8
:1049E00001F0F6FC03461A46BB699A60BB699B68F6
:1049F000002B02D10123FB7779E000233B6212E018
:104A0000BB699A683B6ADB001A4407F11403B96872
:104A1000F868FFF782FD0346FB77FB7F002B61D12F
:104A20003B6A01333B62BB695B683A6A9A42E7DBE7
:104A3000BB681C21184601F0CBFC03461A46BB6933
:104A4000DA6000237B6200233B6224E07B691B6801
:104A50003B617B6904337B61BB69D9683A6A134661
:104A6000DB009B1A9B000B443A6911461846FFF77E
:104A700005FE0346FB77FB7F002B35D13B69002BFE
:104A800014BF01230023DBB21A467B6A13447B6206
:104A90003B6A01333B623A6ABB689A42D6DBBB6928
:104AA00000221A617B6A1B01184601F0D1FC034603
:104AB0001A46BB699A61BB699B69002B02D101232D
:104AC000FB7714E07B6A9B00184601F0C1FC0346AB
:104AD0001A46BB695A61BB695B69002B06D1012389
:104AE000FB7704E000BF02E000BF00E000BFFB7FF7
:104AF000002B03D0B9683868FFF796FEFB7F184695
:104B00002837BD4680BD00BF800E002080B592B022
:104B100000AFF860B9607A60002387F84730BB685F
:104B20003B647A681346DB009B1A1B012033614A01
:104B30001344BB633B6C1B68BB623B6C04333B643C
:104B4000BA6ABB6B5A60BB6B08333A6C12681A6066
:104B50003B6C04333B64BB6B0C333A6C12681A60D9
:104B60003B6C04333B64BB6B10333A6C12681A60C5
:104B70003B6C04333B64BB6B30333A6C12681A6095
:104B80003B6C04333B64BB6B1B6B7B637B6B002B0D
:104B90004DDDBB6B30333B637B6BDB00184601F0B4
:104BA00057FC03461A463B6B5A603B6B5B68002B15
:104BB00003D1012387F847306FE00023FB6320E037
:104BC0003B6B5A68FB6BDB001344FB6207F1140379
:104BD0001022396C184601F04BFC3B6C10333B64DF
:104BE00007F11403FA6A1946F868FFF736FC3B6BC5
:104BF0009A68FB6A5B681A443B6B9A60FB6B0133F3
:104C0000FB633B6B1B68FA6B9A42D9DB3B6B9B687F
:104C1000184601F01DFC03461A46BB6BDA63BB6BFA
:104C2000DB6B002B03D1012387F8473035E03B6C69
:104C30001B687B623B6C04333B647B6A002B02D0B5
:104C40007B6A022B01D1012200E00022BB6B5A617A
:104C50007B6A012B02D07B6A022B01D1012200E08A
:104C60000022BB6B9A61BB6B20330822396C18465B
:104C700001F0FEFB3B6C08333B64BB6B1B69002BF4
:104C800008DABB6B1B695A42BB6B5A64BB6B0022D0
:104C90001A6102E0BB6B00225A6497F84730002B80
:104CA00002D07868FFF722FD97F84730184648375A
:104CB000BD4680BD800E002080B487B000AF786014
:104CC00039607A681346DB009B1A1B01204A1344A3
:104CD0003B61204B00221A703B690022DA640023FA
:104CE0007B611DE03B69D9687A691346DB009B1A3A
:104CF0009B000B44FB60FB685B68002B0DDDFB68D1
:104D00009A68FB68DA60FB689A68FB681A61FB685E
:104D100000225A61FB6801221A607B6901337B61C2
:104D20007A693B689A42DDDB3B6900229A643B6901
:104D300000221A663B6900229A663B69022283F8C8
:104D4000202000BF1C37BD465DF8047B704700BFC4
:104D5000800E00207C0E002080B584B000AF78600B
:104D600039607A681346DB009B1A1B01074A13441B
:104D7000FB60FB68002283F8202039687868FFF721
:104D800053FD00BF1037BD4680BD00BF800E002020
:104D900080B485B000AF78607A681346DB009B1A58
:104DA0001B01164A1344FB60FB6893F82030052B67
:104DB0001DD801A252F823F0ED4D0008D14D000896
:104DC000D14D0008D14D0008D14D0008E34D000839
:104DD000FB684FF0FF32DA62FB68052283F820207F
:104DE00005E0FB684FF0FF32DA6200E000BF00BF71
:104DF0001437BD465DF8047B704700BF800E00206D
:104E000080B485B000AF786039603A681346DB0043
:104E10009B1A1B01124A1344FB60FB68D9687A682D
:104E20001346DB009B1A9B000B44BB600D4B012219
:104E30001A70BB685A69BB681A61BB681A69BB689B
:104E4000DB689A420CBF01230023DBB21A46BB6821
:104E50001A6000BF1437BD465DF8047B704700BF81
:104E6000800E00207C0E002080B489B000AFF86076
:104E7000B9607A603B600023FB77FB689B68FA6847
:104E800052681344BB617B681A68FB681B699A42CD
:104E900003D8FB681B68002B4FD0BB697A68126887
:104EA0009A1AFB681B691946FB689B68CB1A134466
:104EB0007B617A69BB689A4202DA0123FB775DE085
:104EC0007B681A68BB681344BA699A4213D93B6875
:104ED000BA681A607B681A683B685A603B680022AF
:104EE0009A603B680022DA607B681A68BB681A44E3
:104EF0007B681A6042E0BB697A6812689A1A3B685C
:104F00001A607B681A683B685A603B681B68BA681D
:104F1000D21A3B689A603B689B68002B02DDFB68F5
:104F20009B6800E000233A68D360FB689B683A689E
:104F300092681A447B681A6020E0FB681B691A4675
:104F40007B681B68D31A7B617A69BB689A4202DA74
:104F50000123FB7712E03B68BA681A607B681A6825
:104F60003B685A603B6800229A603B680022DA6026
:104F70007B681A68BB681A447B681A60FB7F184616
:104F80002437BD465DF8047B7047000090B58FB0B4
:104F900000AF78607A681346DB009B1A1B01694AF0
:104FA0001344BB62BB6A20337B627B6ADB6B3B6270
:104FB0003B6A3B6300237B63B5E07B6A5A6B7B6B88
:104FC000DB001344FB61FB695B68DB08BB617B6A48
:104FD0001B6C002B00F097807B6AD3E90834C7E98B
:104FE0000434FB691B68FB600023FB6286E07B6A7C
:104FF0005B69002B3DD0FB6ADB00FA681344D3E900
:1050000000341A462346D7E9040101F0A3F9034608
:10501000002B0ED0FB6ADB003A6B1344D3E900345B
:105020001A462346D7E9040101F0A8F90346002BEC
:105030001DD1FB6ADB00FA681344D3E900341A4639
:105040002346D7E9040101F07BF90346002B10D079
:10505000FB6ADB003A6B1344D3E900341A4623465B
:10506000D7E9040101F062F90346002B01D00123C6
:1050700063E07B6A9B69002B3DD0FB6ADB00FA682A
:105080001344D3E900341A462346D7E9040101F05A
:1050900075F90346002B0ED0FB6ADB003A6B134414
:1050A000D3E900341A462346D7E9040101F052F946
:1050B0000346002B1DD1FB6ADB00FA681344D3E9D9
:1050C00000341A462346D7E9040101F02FF90346BC
:1050D000002B10D0FB6ADB003A6B1344D3E9003499
:1050E0001A462346D7E9040101F02AF90346002BAA
:1050F00001D0012321E0FB6A0133FB62FA6ABB693C
:105100009A42FFF674AFFB691968FB695B681A463F
:10511000386B01F0ADF9BB69DB003A6B13443B63BC
:105120007B6B01337B637B6A1B6B7A6B9A42FFF666
:1051300044AF7B6A01221A64002318463C37BD46FF
:1051400090BD00BF800E002080B5AAB000AFF8600F
:1051500087ED000BB960BA681346DB009B1A1B0190
:10516000964A1344C7F89C300023C7F8A430D7F8F8
:105170009C302033C7F89830D7F89C30D968FA684B
:105180001346DB009B1A9B000B44C7F89430D7F8FA
:1051900098301B78022B2DD1D7F898301B6B002B41
:1051A00004D1D7F8983004221A7023E0D7F8983049
:1051B0005B68FA689A421DD1B868FFF7E7FE0346BC
:1051C000002B17D0D7F898301B69002B0AD1D7F8DD
:1051D000983004221A70D7F898309A6CD7F8983023
:1051E0009A6207E0D7F8983003221A70D7F89830FF
:1051F00001229A62D7F898301B78022B06D1D7F893
:1052000098305B6C002B01DD012300E00023C7F820
:105210009030D7F898301B78042B04D0D7F8903012
:10522000002B00F0D981D7F894305B68002B00F098
:10523000D381D7F89430DB68BB620023C7F88C3089
:105240000123C7F888300223C7F884300323C7F846
:1052500080300423FB6707F1140300221A605A60B0
:105260009A60DA601A61FB6F9B0007F1A802134491
:10527000BA6843F8942CD7F89030002B3BD0D7F87D
:1052800098309A6CD7F898305B6C9A4233D1D7F843
:1052900094309B68D7F8942052681344BB67D7F8C2
:1052A00094301B6904337B677B6F1B683B613B69F0
:1052B00008333B61D7F894301B693A691A44D7F830
:1052C00094301A61D7F894301B691A46BB6FD31A11
:1052D0003B673B6F002B07DBD7F894309A683B6F36
:1052E0001A44D7F894301A61D7F898309B6C5A1E3C
:1052F000D7F898309A641423FB6607F12C0307F162
:105300002802F96ED7F89400FFF7AEFD0346C7F800
:10531000A430D7F8A430002B40F06081FB6E083B2E
:10532000FB66D7F888309B0007F1A802134453F8B6
:10533000942CFB6E1A44D7F888309B0007F1A80123
:105340000B4443F8942C07F13C0307F12802082191
:10535000D7F89400FFF788FD0346C7F8A430D7F8C4
:10536000A430002B40F03C81D7F888309B0007F137
:10537000A802134453F8943C08331A46D7F88830EF
:105380009B0007F1A8010B4443F8942C3B6CFA6B8B
:105390003946184601F06CF8BB6C002B0AD0FB6B49
:1053A0001A463B461344BB66BB6C7A6CB96E184612
:1053B00001F05EF80023FB64C1E000BF800E002016
:1053C000D7F89C309A68FB6CDB0013443B663B6E5D
:1053D0001B6893F90030002B00F0AE803B6E1B6819
:1053E00093F90030032B00F0A7803B6E5A68FB68EE
:1053F0009B0013441B68FB65FB6D002B00F09C8039
:10540000D7F884309B0007F1A802134453F8943C6A
:105410005A1CD7F884309B0007F1A8010B4443F8CD
:10542000942C0423FB6607F13C0307F12802F96E74
:10543000D7F89400FFF718FD0346C7F8A430D7F853
:10544000A430002B40F0CE80D7F888309B0007F1C5
:10545000A802134453F8942CFB6E1A44D7F88830F2
:105460009B0007F1A8010B4443F8942C3B6CFA6BAA
:1054700007F14C01184600F0FBFFBB6C002B0BD072
:10548000FB6B1A4607F14C031344BB65BB6C7A6C8B
:10549000B96D184600F0ECFF0023C7F8A03045E0D6
:1054A000FB6D5A68D7F8A030DB0013447B657B6D39
:1054B000596807F13C0307F12802D7F89400FFF779
:1054C000D3FC0346C7F8A430D7F8A430002B40F033
:1054D0008B80D7F888309B0007F1A802134453F85B
:1054E000942C7B6D5B681A44D7F888309B0007F1D9
:1054F000A8010B4443F8942C386C7B6D1B68FA6B45
:10550000194600F0B5FFBB6C002B0AD07B6D1B6801
:10551000FA6B13443B65BB6C7A6C396D184600F02E
:10552000A7FFD7F8A0300133C7F8A030FB6D1B6888
:10553000D7F8A0209A42B3DBFB6C0133FB64D7F8A9
:105540009C305A68FB6C9A423FF73AAFD7F88430E8
:105550009B0007F1A802134453F8943C002B45D05C
:10556000D7F88C309B0007F1A80213441A2243F8A5
:10557000942CD7F880309B0007F1A8021344FA68F6
:1055800043F8942C3B6BFA6A07F11401184600F0BB
:105590006FFFBB6B002B0BD0FB6A1A4607F114039D
:1055A00013447B66BB6B7A6B796E184600F060FF24
:1055B000BA6AD7F89430DA60D7F8943000221A60CB
:1055C000D7F89030002B12D0D7F898309B6C5A1C2B
:1055D000D7F898309A640AE000BF08E000BF06E000
:1055E00000BF04E000BF02E000BF00E000BFD7F84A
:1055F0009030002B0BD1D7F8A430002B07D0D7F870
:1056000098300122DA62D7F8983005221A7000BF6C
:10561000A837BD4680BD00BF80B584B000AF7860BC
:1056200039607A681346DB009B1A1B011E4A13443B
:10563000FB60FB682033BB60BB681B78002B2CD061
:10564000BB681B78012B0CD1BB689B6A591CBA68DC
:105650009162BA68D268934221D139687868FFF7BD
:105660002BFBBB681B78032B1AD1BB689B6A591CA8
:10567000BA689162BA681269934211DBBB689A6C8E
:10568000BB689A62BB6804221A70BB685B6C002B13
:1056900006DDBB680122DA6402E000BF00E000BF63
:1056A0001037BD4680BD00BF800E002080B485B09D
:1056B00000AF78607A681346DB009B1A1B01114A21
:1056C0001344FB60FB682033BB60BB681B78002B76
:1056D00012D0BB681B78042B0FD1BB689B6A5A1C85
:1056E000BB689A62BB689A6ABB689B689A4204D19D
:1056F000BB6805221A7000E000BF1437BD465DF894
:10570000047B7047800E002080B48DB000AFF8603D
:10571000B9607A60BA681346DB009B1A1B013C4AE9
:105720001344BB62BB6A10337B627B6A00221A603F
:105730000023FB6255E0BB6AD968FA6A1346DB00B6
:105740009B1A9B000B443B623B6A1B68002B45D1B4
:105750003B6A1B69FB613B6A5B68BB613B6ADB6858
:105760007B617B6A9A687B6A1B681B0113443B61FF
:105770007B6A5A687B6A1B689B001344FA6A1A604A
:105780007B6A1B685A1C7B6A1A603B69FA695A601B
:105790003B6A7A695A617A69FB699A420BD97A69DC
:1057A000FB69D21A3B691A603B6900229A603B6927
:1057B0000022DA6012E03B6A9A68BB6913441A4619
:1057C000FB69D21A3B691A607B693A6A92689A1A35
:1057D0003B699A603B6A9A683B69DA60FB6A01330D
:1057E000FB62FA6A7B689A42A5DB7B6A1A68FB68EF
:1057F0001A607B6A9A68FB685A607B6A5A68FB6821
:105800009A6000BF3437BD465DF8047B704700BF27
:10581000800E002080B485B000AF786039603A68AF
:105820001346DB009B1A1B010A4A1344FB60FB680A
:105830001033BB60BB6800221A60BB681A687B68C3
:105840001A607B6800225A6000BF1437BD465DF8BD
:10585000047B7047800E002080B588B000AFF860F0
:10586000B9607A60BA681346DB009B1A1B01274AAD
:105870001344FB61FB692033BB61BB691B78FB757B
:10588000FB7D042B02D0FB7D052B34D1BB68194670
:10589000F868FFF7BFFFBB687A681946F868FFF73A
:1058A00033FFFB681B68002B2BD1FB7D052B28D118
:1058B000174B00221A70BB69DB68B3F1FF3F0CD1B4
:1058C00007F108031A4604212020FBF735FBBB68CB
:1058D00079681846FFF740FA13E007F108031A4603
:1058E00004211F20FBF728FBBB6900229A62BB69D9
:1058F00001221A7005E0BB681946F868FFF78AFFB5
:1059000000E000BF00BF2037BD4680BD800E0020F4
:105910007C0E00202DE9F00F82B0002A00F0DB8021
:1059200001EB42026E4E01928A46A0F1020B002367
:105930005D4618461C4635F8022F315832504FEA62
:10594000D239C3F1400CC3F13F0709FB0CFCC2F391
:10595000803808FB07C8C3F13E09C2F3403707FB94
:105960000987C3F13D0CC2F3003909FB0C79C3F17F
:105970003C08C2F3C02C0CFB089CC3F13B07C2F3EC
:10598000802808FB07C8C3F13A09C2F3402707FB88
:105990000987C3F1390CC2F3002909FB0C79C3F163
:1059A0003808C2F3C01C0CFB089CC3F13707C2F3D4
:1059B000801808FB07C8C3F13609C2F3401707FB7C
:1059C0000987C3F1350CC2F3001909FB0C79C3F147
:1059D0003408C2F3C00C0CFB089CC3F13307C2F3BC
:1059E000800808FB07C8C3F13209C2F34007C3F1BE
:1059F000310C07FB098702F0010202FB0C72C1F3B4
:105A0000C038C1F3803703FB082203FB077703F19B
:105A1000020CD719C1F340320CFB027203F10308E8
:105A2000C1F3003C08FB0C281F1DC1F3C02207FB7B
:105A3000028703F1050CC1F380220CFB027203F113
:105A40000608C1F3402C08FB0C28DF1DC1F300221F
:105A500007FB028703F1080CC1F3C0120CFB0272B2
:105A600003F10908C1F3801708FB072803F10A0CAA
:105A7000C1F340120CFB028C03F10B07C1F30012BF
:105A800007FB02C203F10C08C1F3C00708FB07279C
:105A900003F10D0CC1F380020CFB027C03F10E0834
:105AA000C1F3400203F10F0708FB02C201F001013C
:105AB000043007FB01221033102814447FF43BAF5D
:105AC0002301A3F500402AF8020B01998A450BF146
:105AD000080B7FF42CAF02B0BDE8F00F704700BF99
